:020000040800F2
:1000000000000220D9150008BD150008BF15000822
:10001000C1150008C3150008C51500080000000040
:10002000000000000000000000000000C7150008EC
:10003000C915000800000000CB150008CD15000808
:100040002916000829160008291600082916000894
:100050002916000829160008291600082916000884
:100060002916000829160008291600082916000874
:100070002916000829160008291600082916000864
:100080002916000829160008291600082916000854
:100090002916000829160008291600082916000844
:1000A0002916000829160008291600082916000834
:1000B0002916000829160008291600082916000824
:1000C0002916000829160008291600082916000814
:1000D0002916000829160008291600082916000804
:1000E00029160008291600082916000829160008F4
:1000F00029160008291600082916000829160008E4
:1001000029160008291600082916000829160008D3
:1001100029160008291600082916000829160008C3
:1001200029160008291600082916000829160008B3
:1001300029160008291600082916000829160008A3
:100140002916000829160008291600082916000893
:100150002916000829160008291600082916000883
:100160002916000829160008291600082916000873
:1001700029160008291600082916000800000000AA
:080180002916000829160008E9
:10018800044B05481B1A062B02D9044B03B1184728
:10019800704700BF07000020040000200000000096
:1001A80005490648091A891001EBD171491002D096
:1001B800034B03B1184770470400002004000020D7
:1001C8000000000010B5064C237843B9FFF7D8FFAC
:1001D800044B13B10448AFF300800123237010BD12
:1001E80004000020000000002C16000808B5084B89
:1001F8001BB108490848AFF300800848036813B9E1
:10020800BDE80840CCE7064B002BF9D09847F7E744
:1002180000000000080000202C1600080400002040
:100228000000000070B50F4E0F4D761BB61018BFBA
:10023800002405D0013455F8043B9847A642F9D16B
:100248000A4E0B4D761B01F0EDF9B61018BF0024CD
:1002580006D0013455F8043B9847A642F9D170BD41
:1002680070BD00BF68160008681600086C16000804
:100278006816000853B94AB9002908BF00281CBFEE
:100288004FF0FF314FF0FF3000F07AB9ADF1080CB4
:100298006DE904CE00F006F8DDF804E0DDE902239C
:1002A80004B070472DE9F0478C460D460446089E79
:1002B800002B51D18A4217466DD9B2FA82FEBEF19F
:1002C800000F0BD0CEF1200C01FA0EF520FA0CFC31
:1002D80002FA0EF74CEA050C00FA0EF44FEA174A38
:1002E800250CBCFBFAF81FFA87F90AFB18CC45EA7B
:1002F8000C4508FB09F3AB420AD9ED1908F1FF32A6
:1003080080F02381AB4240F22081A8F102083D44ED
:10031800ED1AA4B2B5FBFAF00AFB105544EA0544FD
:1003280000FB09F9A14509D9E41900F1FF3380F070
:100338000A81A14540F2078102383C44A4EB090434
:1003480040EA08400021002E61D024FA0EF4002370
:1003580034607360BDE8F0878B4207D9002E54D013
:10036800002186E821000846BDE8F087B3FA83F14A
:10037800002940F08E80AB4202D3824200F2FA801C
:10038800841A65EB03050120AC46002E3FD086E8B1
:100398001010BDE8F08712B90127B7FBF2F7B7FADA
:1003A80087FEBEF1000F34D1EB1B3A0C1FFA87FC15
:1003B8000121B3FBF2F8250C02FB183345EA03458B
:1003C8000CFB08F3AB4207D9ED1908F1FF3002D254
:1003D800AB4200F2D1808046ED1AA3B2B5FBF2F031
:1003E80002FB105543EA05440CFB00FCA44507D961
:1003F800E41900F1FF3302D2A44500F2B880184690
:10040800A4EB0C0440EA08409DE731463046BDE8BD
:10041800F087CEF1200405FA0EF307FA0EF720FA5A
:1004280004F83A0C25FA04F448EA0308B4FBF2F19C
:100438004FEA184502FB11441FFA87FC45EA0445B8
:1004480001FB0CF3AB4200FA0EF409D9ED1901F1E6
:10045800FF3080F08A80AB4240F2878002393D4409
:10046800EB1A1FFA88F5B3FBF2F002FB103345EAEA
:10047800034500FB0CF3AB4207D9ED1900F1FF3837
:100488006FD2AB426DD902383D44EB1A40EA0141C4
:100498008FE7C1F1200722FA07F88B4005FA01F42B
:1004A80048EA030320FA07FE4FEA134CFD404EEAE0
:1004B800040EB5FBFCF94FEA1E440CFB19551FFA54
:1004C80083F844EA054509FB08F4AC4202FA01F254
:1004D80000FA01FA08D9ED1809F1FF3043D2AC420D
:1004E80041D9A9F102091D442D1B1FFA8EFEB5FB47
:1004F800FCF00CFB10554EEA054400FB08F8A0453B
:1005080007D9E41800F1FF3529D2A04527D90238C8
:100518001C4440EA0940A4EB0804A0FB02894C45AE
:10052800C6464D4615D312D056B1BAEB0E0364EB4E
:10053800050404FA07F7CB401F43CC4037607460CA
:100548000021BDE8F0871846F8E69046E0E6C24587
:10055800EAD2B8EB020E69EB03050138E4E7284656
:10056800D7E7404691E78146BEE7014678E702387B
:100578003C4445E7084608E7A8F102083D442BE754
:10058800704700BF002800F0AB8130B583B0044647
:10059800036813F0010F3BD0A74B9B6803F00C03D3
:1005A800042B2CD0A44B9B6803F00C03082B21D000
:1005B8006368B3F5803F4FD0B3F5A02F52D09E4B60
:1005C8001A6822F480321A601A6822F480221A60AB
:1005D8006368002B50D000F0E7FF0546964B1B6878
:1005E80013F4003F14D100F0DFFF401B6428F5D955
:1005F80003207AE1904B5B6813F4800FD8D08E4BC0
:100608001B6813F4003F03D06368002B00F06A8175
:10061800236813F0020F55D0874B9B6813F00C0F1B
:100628003ED0854B9B6803F00C03082B33D0E3685E
:10063800002B68D00122814B1A6000F0B5FF0546F7
:100648007D4B1B6813F0020F54D100F0ADFF401B27
:100658000228F5D9032048E1774A136843F4803328
:100668001360B5E7744B1A6842F480221A601A685E
:1006780042F480321A60ABE700F096FF05466E4BF5
:100688001B6813F4003FC3D000F08EFF401B6428A2
:10069800F5D9032029E1684B5B6813F4800FC6D1B4
:1006A800654B1B6813F0020F04D0E368012B01D0DF
:1006B80001201AE1604A136823F0F803216943EA2C
:1006C800C1031360236813F0080F40D0636963B354
:1006D80001225B4B1A6000F067FF0546564B5B6FC3
:1006E80013F0020F33D100F05FFF401B0228F5D949
:1006F8000320FAE0504A136823F0F803216943EA1B
:10070800C1031360DEE700224C4B1A6000F04CFF77
:100718000546494B1B6813F0020FD3D000F044FF85
:10072800401B0228F5D90320DFE00022444B1A6061
:1007380000F03AFF0546404B5B6F13F0020F06D0FE
:1007480000F032FF401B0228F5D90320CDE02368D2
:1007580013F0040F1FD1A369002B00F0C580364A9F
:10076800926802F00C02082A00F0C180022B7FD0A8
:100778000022344B1A6000F017FF04462E4B1B680A
:1007880013F0007F00F0AA8000F00EFF001B022883
:10079800F4D90320A9E000230193274B1A6C42F0F7
:1007A80080521A641B6C03F080530193019B264A04
:1007B800136843F48073136000F0F6FE0546224B7D
:1007C8001B6813F4807F06D100F0EEFE401B022860
:1007D800F5D9032089E0A368012B1DD0052B21D072
:1007E800154B1A6F22F001021A671A6F22F00402E1
:1007F8001A67A36853B300F0D7FE05460E4B1B6F6C
:1008080013F0020FA7D100F0CFFE401B41F288334E
:100818009842F3D9032068E0074A136F43F00103B5
:100828001367E6E7044B1A6F42F004021A671A6F5F
:1008380042F001021A67DCE7003802400000474234
:10084800800E4742600047420070004000F0ACFE56
:100858000546284B1B6F13F0020F3FF47CAF00F0E6
:10086800A3FE401B41F288339842F2D903203CE0B2
:100878000022214B1A6000F097FE05461D4B1B68AD
:1008880013F0007F06D000F08FFE401B0228F5D938
:1008980003202AE0E369226A1343626A43EA821367
:1008A800A26A5208013A43EA0243E26A43EA02634F
:1008B800104A53600122104B1A6000F075FE04467E
:1008C8000C4B1B6813F0007F06D100F06DFE001B77
:1008D8000228F5D9032008E0002006E0002004E003
:1008E80001207047012000E0002003B030BD012046
:1008F800FBE700BF0038024060004742F8B5254BCF
:100908009B6803F00C03042B41D0082B01D022482C
:10091800F8BD204B5A6802F03F025B6813F4800F61
:1009280012D01C4B5968C1F3881100231B48A1FB46
:100938000001FFF79FFC174B5B68C3F301430133CA
:100948005B00B0FBF3F0F8BD124B5B68C3F3881390
:100958001E4600275C010025E41A65EB0705A9017E
:1009680041EA9461A001001B61EB0501CB0043EA59
:100978005073C400A01943EB07018B0243EA90535C
:100988008402204619460023FFF774FCD3E7034886
:10099800F8BD00BF003802400024F40040787D0113
:1009A800002800F09D8070B504464F4B1B6803F08B
:1009B8000F038B4209D2CBB24B4A1370136803F072
:1009C8000F03994201D0012070BD236813F0020F74
:1009D80017D013F0040F04D0444A936843F4E0534B
:1009E8009360236813F0080F04D0404A936843F4D7
:1009F800604393603D4A936823F0F003A068034383
:100A080093600D46236813F0010F32D06368012B01
:100A180021D09A1E012A25D9344A126812F0020FF1
:100A280060D032498A6822F0030213438B6000F0D9
:100A3800BBFD06462D4B9B6803F00C036268B3EBC5
:100A4800820F16D000F0B0FD801B41F28833984227
:100A5800F0D9032070BD254A126812F4003FE0D196
:100A6800012070BD214A126812F0007FD9D10120FF
:100A780070BD1D4B1B6803F00F039D4209D2EAB2FB
:100A8800194B1A701B6803F00F039D4201D0012017
:100A980070BD236813F0040F06D0144A936823F43A
:100AA800E053E1680B439360236813F0080F07D005
:100AB8000E4A936823F46043216943EAC1039360B3
:100AC800FFF71CFF094B9B68C3F30313084AD35C69
:100AD800D840084B1860002000F02EFD002070BDA3
:100AE80001207047012070BD003C024000380240E0
:100AF8005016000800000020014B1868704700BF1E
:100B08000000002090F83830012B22D030B40122A8
:100B180080F83820022380F839300468636823F0AD
:100B280070036360046863680D682B43636004683E
:100B3800A36823F08003A3600468A36849680B4393
:100B4800A36080F83920002380F83830184630BC7C
:100B5800704702207047000030B4036A23F0010395
:100B68000362036A4468826922F073020D682A43AB
:100B780023F002038D682B430F4DA8421AD005F5C8
:100B88008065A84214D000255DB123F00803CD6824
:100B98002B4323F0040324F440744D692C438D69DE
:100BA8002C43446082614A684263036230BC7047E8
:100BB8000125E9E70125E7E70000014030B4036AB1
:100BC80023F480730362036A4468C26922F07302E3
:100BD8000D682A4323F400738D6843EA0523114DF9
:100BE800A8421DD005F58065A84217D0002575B12B
:100BF80023F40063CD6843EA052323F4806324F4D7
:100C080040544D6944EA05148D6944EA051444606A
:100C1800C2614A68C263036230BC70470125E6E7D7
:100C28000125E4E70000014030B4036A23F480534F
:100C38000362036A4468C26922F4E6420D6842EA24
:100C4800052223F400538D6843EA05330C4DA8426E
:100C580013D005F58065A8420DD0002525B124F4F0
:100C680080444D6944EA85144460C2614A6802645C
:100C7800036230BC70470125F0E70125EEE700BFAD
:100C8800000001400368454A90424AD0B0F1804FC5
:100C980049D0A2F57C42904247D002F5806290424A
:100CA80045D002F58062904243D002F578429042E6
:100CB80035D000221AB123F070034A681343374A2B
:100CC80090423AD0B0F1804F50D0A2F57C42904289
:100CD8004ED002F5806290424CD002F5806290427C
:100CE8004AD002F57842904248D002F570529042BC
:100CF80046D002F58062904244D002F5806290426C
:100D080042D0A2F59832904240D002F580629042DB
:100D18003ED002F5806290420DD000220EE0012202
:100D2800C8E70122C6E70122C4E70122C2E701227F
:100D3800C0E70122BEE7012200E001221AB123F434
:100D48004073CA68134303608B68C3620B6883628D
:100D5800124B984220D003F5806398421AD00023A2
:100D68000BB10B6903630123436170470122E5E777
:100D78000122E3E70122E1E70122DFE70122DDE7C3
:100D88000122DBE70122D9E70122D7E70122D5E7D3
:100D98000122D3E70123E3E70123E1E70000014053
:100DA800A8B110B5044690F839305BB1022384F835
:100DB8003930211D2068FFF765FF012384F8393099
:100DC800002010BD80F8383000F0ECFAEEE7012082
:100DD8007047000030B4036A23F010030362036A0B
:100DE8004468826922F4E6420D6842EA052223F04B
:100DF80020038D6843EA0513114DA8421DD005F55F
:100E08008065A84217D0002575B123F08003CD680E
:100E180043EA051323F0400324F440644D6944EA8F
:100E280085048D6944EA8504446082614A68826366
:100E3800036230BC70470125E6E70125E4E700BFFF
:100E48000000014038B590F83830012B66D00D46C7
:100E58000446012380F83830022380F839300C2A00
:100E68001AD8DFE802F007191919201919193419C5
:100E7800191947000068FFF76FFE2268936943F06D
:100E8800080393612268936923F00403936122683D
:100E9800936929690B439361012384F83930002051
:100EA80084F8380038BD0068FFF794FF226893691A
:100EB80043F4006393612268936923F48063936128
:100EC80022689369296943EA01239361E4E700688A
:100ED800FFF774FE2268D36943F00803D3612268E0
:100EE800D36923F00403D3612268D36929690B43CA
:100EF800D361D1E70068FFF797FE2268D36943F40E
:100F08000063D3612268D36923F48063D3612268C4
:100F1800D369296943EA0123D361BDE7022038BDBB
:100F280010B4012303FA01F4036A23EA04030362F9
:100F3800036A8A40134303625DF8044B704700005C
:100F480010B5044601220068FFF7EAFF23680C4A3F
:100F5800934212D002F5806293420CD000221AB15B
:100F68005A6C42F400425A642268136843F0010341
:100F78001360002010BD0122F1E70122EFE700BF56
:100F88000000014030B589B000240194134B1A6B5E
:100F980042F020021A631A6B02F020020192019AB1
:100FA80002941A6B42F008021A631B6B03F00803E1
:100FB8000293029B0A4D22463C21284600F0BCF9C8
:100FC8003C2303930123049302230593069403A966
:100FD800284600F0CBF809B030BD00BF0038024009
:100FE8000014024008B501221021024800F0A4F9BB
:100FF800FEE700BF0014024010B58AB01D481E4B22
:1010080003603F2343600023836040F2E732C260FD
:101018000361FFF7C5FE00BB00230893099308A9E5
:101028001448FFF76FFDE0B9602301934FF4FA739A
:101038000293002303930593082201A90D48FFF7A3
:1010480001FF90B90B4C204600F0C4F9082201A911
:101058002046FFF7F7FE0AB010BDCA210748FFF780
:10106800C1FFD1210548FFF7BDFFDA210348FFF78B
:10107800B9FF00BF20000020000800404416000807
:1010880000B595B000230193284A116C41F08051B6
:101098001164126C02F080520192019A0293244A60
:1010A800116841F480411160126802F48042029292
:1010B800029A0221089101220B9210220C920E91A1
:1010C8000F9310924FF48073119304231293139388
:1010D80008A8FFF757FA08BB0F23039302210491CE
:1010E800002305934FF480520692079303A8FFF755
:1010F80057FCB8B9FFF700FD0E4BA3FB0030800981
:1011080000F0EEF9042000F001FA002211464FF039
:10111800FF3000F0B3F915B05DF804FB9F210648D5
:10112800FFF760FFAD210448FFF75CFF003802407D
:1011380000700040D34D62104416000808B500F056
:1011480011FAFFF79DFFFFF71DFFFFF755FF082175
:101158000448FFF7F5FE00B9FEE770210248FFF7E3
:1011680041FF00BF2000002044160008F0B583B0FE
:1011780000244BE04FEAD40E0EF1080E50F82E2052
:1011880004F00706B6000F27B74022EA07020F69E6
:1011980007FA06F6324340F82E2046E0072600E01C
:1011A800002606FA0EF6324302335E4E46F8232036
:1011B8005D4B1A68EB4302EA03064F6817F4803F59
:1011C80001D045EA0206584A1660526803EA020648
:1011D8004F6817F4003F01D045EA0206524A5660AC
:1011E800926803EA02064F6817F4801F01D045EAA7
:1011F80002064D4A9660D26813404E6816F4001FE6
:1012080001D045EA0203484AD36001340F2C00F2AA
:1012180086800123A3400A6803EA0205AB42F4D1A1
:101228004A68022AA6D0122AA4D006684FEA440EB9
:10123800032202FA0EF2D24316404F6807F0030762
:1012480007FA0EF73E4306604E68771E012F03D952
:10125800112E01D0122E0FD186681640CF6807FADA
:101268000EF73E438660466826EA03034E68C6F3D7
:101278000016A64033434360C3681A408B6803FADC
:101288000EF31A43C2604B6813F0805FBDD0002391
:101298000193264B5A6C42F480425A645B6C03F407
:1012A80080430193019BA3089E1C1E4A52F82620E6
:1012B80004F003064FEA860E0F2606FA0EF622EA17
:1012C80006021B4FB8423FF46BAF1A4EB0421AD019
:1012D80006F58066B04218D006F58066B04216D092
:1012E80006F58066B04214D006F58066B04212D08A
:1012F80006F58066B04210D006F58066B0423FF42D
:101308004DAF08264DE701264BE7022649E703269D
:1013180047E7042645E7052643E7062641E703B0E5
:10132800F0BD00BF00380140003C014000380240D9
:10133800000002400004024012B9090481617047AC
:101348008161704708B5032000F086F80022114635
:101358006FF00B0000F092F8002211466FF00A00BF
:1013680000F08CF8002211466FF0090000F086F8B2
:10137800002211466FF0040000F080F800221146A8
:101388006FF0030000F07AF8002211466FF00100B8
:1013980000F074F8002211464FF0FF3000F06EF8AC
:1013A80008BD00000268094B9A4200D0704782B01D
:1013B80000230193064B1A6C42F004021A641B6C5A
:1013C80003F004030193019B02B0EFE7000800401B
:1013D8000038024002680B4B9A4200D0704700B5B3
:1013E80087B04FF4804301930223029303930022B2
:1013F8000492059301A90448FFF7B8FE07B05DF809
:1014080004FB00BF00080040000C02400F49D1F85F
:10141800883043F47003C1F888300D4B1A6842F0E5
:1014280001021A60002098601A6822F0847222F47F
:1014380080321A60074A5A601A6822F480221A60B9
:10144800D8604FF000638B60704700BF00ED00E08C
:101458000038024010300024074AD36823F4E063C0
:101468001B041B0C000200F4E060184340F0BF604E
:1014780040F40030D060704700ED00E030B4164B07
:10148800DB68C3F30223C3F10704042C28BF042438
:101498001D1D062D17D9033B012505FA04F4013C4F
:1014A8002140994005FA03F3013B134019430028F2
:1014B8000BDB0901C9B200F1604000F5614080F81A
:1014C800001330BC70470023E6E700F00F00090165
:1014D800C9B2024B1954F4E700ED00E014ED00E046
:1014E8000138B0F1807F0AD2064B5860F021064AD5
:1014F80082F823100020986007221A6070470120A4
:10150800704700BF10E000E000ED00E0042805D0BF
:10151800054A136823F0040313607047024A1368EE
:1015280043F004031360704710E000E0704708B50B
:10153800FFF7FCFF08BD000010B50446074B18680C
:10154800074BA3FB00308009FFF7CAFF00222146A2
:101558004FF0FF30FFF792FF002010BD0000002081
:10156800D34D621008B50B4B1A6842F400721A602A
:101578001A6842F480621A601A6842F480721A602B
:101588000320FFF769FF0020FFF7D6FFFFF7DAFE19
:10159800002008BD003C0240024A13680133136072
:1015A800704700BF5C000020014B1868704700BFFF
:1015B8005C0000207047FEE7FEE7FEE7FEE77047A5
:1015C8007047704708B5FFF7E7FFFFF7B0FF08BDA2
:1015D800DFF834D0002103E00C4B5B584350043152
:1015E8000B480C4B42189A42F6D30B4A02E00023F0
:1015F80042F8043B094B9A42F9D3FFF707FFFEF77D
:1016080011FEFFF79BFD70470000022070160008CE
:1016180000000020040000200400002060000020DA
:10162800FEE70000F8B500BFF8BC08BC9E4670474E
:0C163800F8B500BFF8BC08BC9E46704727
:101644005372632F6D61696E2E6300000000000009
:0C16540000000000010203040607080962
:081660004CECFF7F01000000CB
:04166800F501000880
:04166C00CD010008A4
:041670000024F4005E
:04000005080015D901
:00000001FF
